:020000023000CC
:10A00000004000201DB6030059B603005BB60300F4
:10A010000000000000000000000000000000000040
:10A020000000000000000000000000005DB603001A
:10A0300000000000000000005FB6030061B60300EE
:10A0400063B6030063B60300B1C5030063B6030043
:10A0500063B603000000000063B6030063B60300AC
:10A0600063B6030063B6030099B7030063B6030049
:10A0700063B6030063B6030063B6030063B6030070
:10A0800063B6030031AC030063B6030063B603009C
:10A09000D5AC030063B6030019AB030063B603003D
:10A0A00063B6030063B60300000000000000000078
:10A0B00000000000000000000000000000000000A0
:10A0C00010B5064C2378002B07D1054B002B02D08E
:10A0D000044800E000BF0123237010BD24250020A8
:10A0E00000000000DCCA0300044B10B5002B03D0B5
:10A0F0000349044800E000BF10BDC0460000000056
:10A1000028250020DCCA0300402292029A1A9246B7
:10A110007047C046174B002B00D1134B9D46FFF7ED
:10A12000F3FF00218B460F461348144A121A02F01F
:10A1300024FC0E4B002B00D098470D4B002B00D079
:10A1400098470020002104000D000D48002802D08F
:10A150000C4800E000BF02F0E3FB2000290001F002
:10A160009BF902F0C7FBC046000008000000000099
:10A17000000000000040002024250020802C00204A
:10A18000000000000000000072DF704779DF7047B8
:10A190007DDF704765DF7047F0B5002406002500BD
:10A1A00087B00C9F00933B78039102920193338810
:10A1B000AB420ADC002084423FD03B78019A013B4D
:10A1C0009B1A0199009A535437E07368A9005918F3
:10A1D000042205A802F0C8FB04AB0022D91C05A884
:10A1E000FFF7D8FF002828D104ABDB78029A93420E
:10A1F00020D1614261413B7849009A1852181F2AC8
:10A200001ADC002C06D19A1C3A700399009A01338B
:10A21000DBB2D154009B3A7805A89A1804ABDC1C39
:10A220002100FFF7B7FF002807D1227801243B78EF
:10A230009B183B700135BAE70C2007B0F0BDF7B5AD
:10A24000089F16000097022204001D00FFF7A4FFDC
:10A25000002806D12B001022310020000097FFF7C4
:10A260009BFFFEBD0023F0B51370037806000D00C0
:10A27000140087B0002B24D043780C201D2B4FD81E
:10A280000E2702ABFF181D23881C3B803900FFF707
:10A290007FFF002844D13378022B03D13B88092269
:10A2A0001D2B06D973785A1E9BB21C2A00D93B88F5
:10A2B0000822DBB2591C29706A70227802329B187E
:10A2C0002370B378002B1ED023780C201B2B27D8AB
:10A2D0000E2702ABFF183800FFF758FF00281FD1E8
:10A2E00023785A1C22700322EA5423785A1C2270C5
:10A2F0001922EA5423783A88EB181A70120A5A7015
:10A30000237802332370B388002B1ED0B268002A52
:10A3100000D1FDE02278911CC9181F2902DD0C2014
:10A3200007B0F0BD511C01332170AB5423785A1C87
:10A3300022700122EA542078B288B168281802F00D
:10A3400013FBB38822789B182370F268002A11D07F
:10A3500023781C2BE3D8591C127821700221E95470
:10A36000237852B2591C21700A21E9542378591CD0
:10A370002170EA54338A002B50D1338B002B09D043
:10A3800030002B000722032100941830FFF757FFFD
:10A390000028C5D1338C002B09D030002B001522AA
:10A3A000142100942030FFF74AFF0028B8D1B26A88
:10A3B000002A3ED1F76A002F28D03B792278981CDA
:10A3C000911CC0B209181F29A9DC511C033321704C
:10A3D000AB5423785A1C2270FF22EA5423783A881F
:10A3E000EB181A70120A5A7020780230C0B220702E
:10A3F000BA88002A0AD0B968002900D188E0281854
:10A4000002F0B2FABB8822789B18237033003433F1
:10A4100003931B78002B45D1002081E730002B00EF
:10A420000622022100941030FFF709FF0028A4D073
:10A4300076E721788B1D1F2B00D970E71388052B39
:10A4400066D9344FD81980B20290334884460298B6
:10A4500060455DD9508805285AD9C719BFB26745EC
:10A4600056D92E4FBB4201D0834251D84B1C23708A
:10A4700005236B542378591C21701221E954237849
:10A480001188EB181970090A597023780233DBB26E
:10A4900023705288EB181A70120A5A70237802330C
:10A4A000237087E7336B002B32D0002302930C27F5
:10A4B000029B22785F43336B511CDF193B7921707B
:10A4C0000333AB5423785A1C22701622EA542378A3
:10A4D0003A88EB181A70120A5A7020780230C0B20B
:10A4E0002070BA88002A09D0B968002910D028182D
:10A4F00002F03AFABB8822789B182370029B013342
:10A50000DBB20293039B029A1B789342CFD883E776
:10A51000072005E77FF3FFFF7DF30000FFFF00004A
:10A5200030B593B000236A4604000D009371D371D7
:10A53000984212D08388002B02D1072013B030BD7F
:10A540008368002BF9D01B785B07F6D5063202A989
:10A55000FFF788FE0028F1D102AC002D0BD0AB88AC
:10A56000002BEAD16B462800DA1D0AA9FFF77AFE14
:10A570000028E3D10AAD6A466B46917920002A0093
:10A58000DB79FFF701FED9E775DF704776DF7047AB
:10A590007ADF70477BDF704713B5164C164B208867
:10A5A000984210D0A378227C0133DBB2A3709A4288
:10A5B0000AD321002031FFF7E7FF002803D0E36929
:10A5C000002B00D0984713BD0023A370237D002BE0
:10A5D00008D03B21FFF7DAFF002803D0E369002B06
:10A5E00000D09847A369002BEDD0002201A802708B
:10A5F000E8E7C04640250020FFFF000013B5174CD8
:10A60000638D228C9A4209D8628C9A4206D3A36940
:10A61000002B20D100233034237013BD23003033AE
:10A620001B78002B06D0A369002BF3D0002201A8D1
:10A6300002700CE0A378002B0BD1A1680022606BA4
:10A6400000F098FD0028E5D0E369002BE2D09847A0
:10A65000E0E7E168F2E7012201A8E9E740250020F0
:10A66000020070B5144C231D62CA62C362CA62C381
:10A67000126825001A6023000022016830331A7026
:10A680002035914213D02800083202F06DF92800DD
:10A69000FFF77EFF002809D10123200000215B4243
:10A6A000064A34302380A17000F040FD70BD2800C0
:10A6B000FFF770FFEEE7C0464025002099A5030094
:10A6C00010B5024B586B00F09DFD10BD40250020D9
:10A6D0000388010010B5122B35D004D8102B11D0EF
:10A6E000112B20D010BD502BFCD11A4CC088628A8F
:10A6F0009042F7D1CB8B022BF4D10131CB7FDB071A
:10A700000ED416E0134C8388200008220E31283026
:10A71000238002F029F90023A370638A002BE1D182
:10A72000FFF76CFFDEE701230A4C5B422380002326
:10A73000A370606B00F066FD0028D3D0E369002BA6
:10A74000D0D09847CEE7034808220631283002F0DF
:10A750000BF9E5E74025002073B5154C01002500F5
:10A7600020350822280002F0FFF82800FFF710FF2C
:10A77000051E09D1638D228C9A4207D8628C9A42B9
:10A7800004D3A369002B0DD1280076BD230021003E
:10A7900001263033208820311E70FFF7F5FEA670A9
:10A7A0000500F1E7012201A802709847ECE7C046D6
:10A7B000402500200B7803704B78437002207047CF
:10A7C00070B5040008000D0002F0DFF8656020801D
:10A7D00070BD0000A0DF7047A2DF7047F0B591B0F8
:10A7E0000D00140001900093002904D16D21280070
:10A7F000194A01F051F8002C04D16E212000164AAC
:10A8000001F04AF809AE1C220021300002F0B5F830
:10A810000122022303AFBA70019A02A93A80009A7A
:10A820003370127806A80A70009A52788B704A70BA
:10A830000822002102F0A1F802AB05931C829C8241
:10A84000064B3100188804AA169B04970895FFF759
:10A85000C3FF11B0F0BDC046D8C903007825002061
:10A8600070B586B06B46040001206A46574E987357
:10A87000574B03A993813200FFF7ACFF051E51D15E
:10A880002288002A51D12289002A0AD033000A33B3
:10A8900000932300E1684F483C33FFF79FFF0028F7
:10A8A0004DD1228A002A0AD03300123300932300AC
:10A8B000616949483C33FFF791FF00283FD1228B63
:10A8C000002A0AD033001A3300932300E169434879
:10A8D0003C33FFF783FF002831D1228C002A0AD0B5
:10A8E0003300223300932300616A3D483C33FFF775
:10A8F00075FF002823D1228D002A0AD033002A3385
:10A9000000932300E16A37483C33FFF767FF0028D4
:10A9100015D1236B002B14D1616B002931D1A36BAE
:10A92000002B3BD1280006B070BDB31C0093230060
:10A9300061682D483C33FFF751FF0028A3D0050084
:10A94000F0E71A6804A90A701A682848120A4A70BF
:10A950001A68120C8A701A68120ECA705A680A7144
:10A960009B681A0A4B711B0CCB71330032338A710E
:10A970000093230008223C33FFF730FF0028CBD0A0
:10A98000DDE733003A330A79009323000968184859
:10A990003C33FFF723FF0028C1D0D0E71A7804A981
:10A9A0000A705A8842364A70120A8A709A88114888
:10A9B000CA70120A0A71DB8807224B711B0A8B715D
:10A9C000230000963C33FFF709FFB8E77825002005
:10A9D0000A180000242A0000252A0000272A000067
:10A9E000262A0000282A0000292A0000232A000025
:10A9F0002A2A0000502A000026DF704751DF7047E6
:10AA000010DF704711DF704761DF704710B5080035
:10AA1000110000F042FF10BDF7B51F4D2B78DEB2DC
:10AA2000002B37D06B685C425C41AA68E4B2002A14
:10AA30002AD001A8FFF7E2FF052829D0002817D067
:10AA40006921164A00F028FF002CF2D1AB892F694A
:10AA500001A938000B80FFF7D7FF052810D0002888
:10AA60000AD080210D4A00F017FF002CEED1E0E75C
:10AA70000198AB689847E7E738006B689847F4E7B8
:10AA8000002C07D13400D4E7002B03D03400DDE7DD
:10AA9000002CFBD0F7BDC046C42500200DCA030022
:10AAA00070B505000720002910D08C070ED1084C86
:10AAB000280021610749A2816361FFF7A1FF0028F7
:10AAC00004D1012316302370FFF796FF70BDC046F6
:10AAD000C42500200DAA030010B5FFF793FF030063
:10AAE0005A1E9341014ADBB2137010BDC4250020E9
:10AAF00003000E20002B02D00020014A5360704753
:10AB0000C425002003000E20002B02D00020014AA3
:10AB100093607047C4250020084B10B55B69002B7B
:10AB200008D09847002804D09921054A490000F030
:10AB3000B3FE10BDFFF770FFFBE7C046C425002041
:10AB40000DCA030030B5447803008078621C90423F
:10AB500000D100221D780020954204D018304443D3
:10AB600058680A60001930BD154B10B55B680220AB
:10AB7000DB05DC0D002B1BD0103C03222100114013
:10AB8000914060B2E3B2240613D50F200340083B86
:10AB90000C489B089B001B185B68CB409B0913402B
:10ABA0000020DAB2012B03D0033A531E9A41501C05
:10ABB00010BD8308C03304489B001B58EDE7C04616
:10ABC00000ED00E018ED00E000E100E02F23C046BA
:10ABD000C046C046C046C046C046C046C046C04645
:10ABE000C046C046C046C046C046013B002BEED121
:10ABF000704780220B4B920270B5DA678023D22215
:10AC00000125094C5B029200A350403AA3506560B5
:10AC1000FFF7DCFFA5600025044C2560FFF7D6FF99
:10AC2000257170BD04E100E000100140DC2500202A
:10AC3000F8B50025214B224C5D649D64DD641D65E3
:10AC40005D609D60A7687B1C31D01E4B1E4AD658A4
:10AC50002368F61A3602360A24217943E368591824
:10AC60004B68B34212D822690F6AF61AED188B6945
:10AC7000C969002A1CD018009047002804D064211C
:10AC8000124AFF3100F008FE7B1CE5D1227D637D76
:10AC9000934204D10133DBB2022B0CD02375802206
:10ACA000237D52039B00E418094BA5615A60F8BD4F
:10ACB00008009847E8E70023F0E7C046FC10014091
:10ACC000DC250020040500000010014046CA0300F6
:10ACD000FCE100E00020F0B5CA4B89B01A68197D8C
:10ACE00006929A68019007925A7D0290914212D082
:10ACF0000132D2B2022A00D189E05A755A7D9200FF
:10AD00009A18926901920199069A52181202120A2F
:10AD10001A60012202920133DB7F0393B94A013B9F
:10AD2000DBB20093536A0593009BFF2B00D070E0C9
:10AD30009368D2689446029A002A00D0E1E0079A0C
:10AD4000D31A5A1E9341DBB2029301235B42009354
:10AD5000AC4B9A681B68110001930023079204937F
:10AD6000039B013BDBB20393FF2B00D0D1E0049B9C
:10AD7000A44D002B00D0A960AA68079B934202D182
:10AD8000029B002B41D0531C00D14AE124235343A2
:10AD900063445B689C4C02939C4BE658019BF31AFE
:10ADA0001B021B0A033300932B79002B12D1802343
:10ADB000D1225B029200A350403AA350C0218022CE
:10ADC0000127934B920249005A501A602760FFF7FF
:10ADD000FDFE2F71029B009A934200D21300019A4C
:10ADE0009B181A02A823120ADB00E250874B921B21
:10ADF000E35812029B1B1B021B0A0333120A9342E5
:10AE000003D98022834B92025A6009B0F0BD002220
:10AE100073E7009B059ADB00D2180492059AD45C74
:10AE2000049B5B78A34201D1009B77E71822049B27
:10AE300062435B68013405939A18049BE4B29B78E3
:10AE4000A34200D100246F4B1178DE689B68022971
:10AE500005D00329E4D10020012102001EE0516841
:10AE600024224A43B2180592127D002AD8D01A0033
:10AE70001D0007E024275743F719914200D1D3E082
:10AE800015003A6A501CF5D10023059A1375C7E7DF
:10AE9000242043430800F3181A751B6A5D1CF7D180
:10AEA0000028BDD0574A9360BAE732005A43624443
:10AEB0005568019FBD4207D9002901D051498B60D7
:10AEC000019BED1A556043E701994019491B15692B
:10AED000176A019154601475002D08D00699D56049
:10AEE00009180902090A91600099009311623B0058
:10AEF00002995A1CD9D1002900D129E7414A93600F
:10AF000026E7012200215242080024260C0000926C
:10AF1000EFE7039BDA00059B9A18009B013323D1CE
:10AF2000002655781378AB4200D119E71820584312
:10AF30005468013320189478DBB213709C4200D11E
:10AF400016700378012BEDD14468233363436344C7
:10AF50001F7D002FE6D185689D60C568DD600569AD
:10AF600040691D61D86106E024230098434363448F
:10AF70000400186A00909868019D274F451B2D0218
:10AF8000DE682D0ABD4219D8AD195D60002001268A
:10AF90009860D86001381E7518624B1C0CD02425AF
:10AFA000242365434B436544634468685F68B84243
:10AFB00034D8381A58602962049621E0019D281A75
:10AFC0000002000AB04202D2301A5860DEE70020C8
:10AFD000FBE7366AC01B0693771C0AD03300242691
:10AFE0005E43664477688742F3D33F1A77601E005A
:10AFF000069B68602420434363442E621C620C005D
:10B0000021008AE7DC250020001001400405000033
:10B0100000E100E0FCE100E0FEFF7F000B00069194
:10B02000DDE7FFF7E6FDF0E6A94209D1242253430C
:10B03000F3181B6A0A4A9360013301D1FFF7D9FD67
:10B0400024214D433B6A75197A682B62581C00D144
:10B050001AE74B43F61873689A18726014E7C046F3
:10B06000DC250020F7B51C00032325000F00160087
:10B0700001901D401C424DD1002C4BD0FFF7B9FD73
:10B08000254B089A24211A611A00283217702A00C9
:10B090004F43DC60E719BC4238D103215A1CD177F9
:10B0A0002100182018310F00002270435C6261609B
:10B0B00022706270A67008340918A742F7D10121E6
:10B0C0008024C526FF20494299605A751A7582313D
:10B0D000124A6403FF315450B6009159814308006D
:10B0E000C02101439151A121146001980C4CC90069
:10B0F0006050043E91590B480840C02109020143A9
:10B100009151094AA2581A602800FEBD227022758A
:10B110002434C0E70725F7E7DC25002000E100E044
:10B1200000100140FF00FFFF04050000F0B5104CC7
:10B130000500E3680820002B17D00138002A14D03E
:10B14000002D12D0283427780024A74201DC0420E7
:10B150000BE01E002433180024380078002805D1A5
:10B16000012371703370B2612C60F0BD0134ECE7E3
:10B17000DC250020F0B51F4E85B00192F268050075
:10B180000C000820002A32D0330028331B78013805
:10B19000AB422CD904292AD924236B43D118D35C80
:10B1A0000130012B23D14B782700012B00D0002741
:10B1B000FFF7DAFC766AC0003618300003A9FFF703
:10B1C000C1FC03000420002B11D001220A491A708F
:10B1D0000A4A5D608A5800209A60019ADC605A61D0
:10B1E00080221F61039B52037370054B5A6005B0A8
:10B1F000F0BDC046DC250020001001400405000021
:10B20000FCE100E073B5154E0400F2680820002A46
:10B2100022D0330028331B780138A3421CD92423C1
:10B2200063439B5C0130012B16D1FFF79DFC756ACF
:10B23000C0002D18280001A9FFF784FC030004209A
:10B24000002B09D002221A70802200205C60019B32
:10B2500052036B70024B5A6076BDC046DC2500205D
:10B26000FCE100E013B50F4C0820E368002B17D079
:10B27000FFF77AFC646AC0002418200001A9FFF7D8
:10B2800061FC03000420002B0AD003221A70043A48
:10B290005A6080220020019B52036370024B5A6067
:10B2A00016BDC046DC250020FCE100E0024A034B4D
:10B2B000D3580360002070470010014004050000CF
:10B2C000401A0002000A10600020704718DF704723
:10B2D0002DDF704713DF7047B024054B6402200058
:10B2E0001D68FFF7F7FF236883F30888A847FEE788
:10B2F00004600100F0B58DB000F014FA00F044FADB
:10B300005F4C01902378002B0DD1A222A021D20006
:10B31000C9058A58520006D5E722D2008B5001F0A9
:10B320006FF9012323706378012B15D100F068FCBD
:10B33000002834D00123637000F068FC0500A01CD5
:10B340002A78A91C01F010FB2B78E21C013B280095
:10B35000D37700F061FC22E000F052FE051E1BD006
:10B3600002786178012A12D943884648034046484A
:10B3700083420CD100290AD102236370A01CA91CAE
:10B3800001F0F2FA2B78E21C013BD37701E00229AD
:10B39000F4D0280000F044FE6378022BC6D1A71C2D
:10B3A0000334E57FFF2D26D0002303AE0135337033
:10B3B000EDB202AB2A003900981D01F0D5FA380031
:10B3C000757000F007FF002815D1300001F026FA53
:10B3D000FF233000E37701F0B7F900280BD0337872
:10B3E000002B08D1757802AB2A003800991D013D69
:10B3F00001F0BAFAE577224CE71CFD7FA61CFF2D71
:10B4000012D06378022B29D100F032FE051E0BD03A
:10B41000FA7F31000230013201F0A6FAFB7F2800EA
:10B4200001332B7000F034FEFF230334E377174B16
:10B430005A6C002A04D000225A64154B01321A605B
:10B44000019B002B00D157E780212023114AC90519
:10B45000885803438B50FFF73BFFFEE7012BE3D1F6
:10B46000270020000135EDB22A00310024372630B4
:10B4700001F07AFA631D3800DD7700F0D3FBD3E7E3
:10B4800008260020FFFEFFFFFFFE0000FC900040AA
:10B49000006000401C05000073B54C48FFF716FF24
:10B4A000E8208002FFF716FF80238621484CDB0549
:10B4B0001A590A40822A09D01A59520606D4B022D3
:10B4C00052021268013201D0FFF706FF1B595B06DA
:10B4D0000BD5B1233F4D0422503528003E492B7136
:10B4E00001F042FA280000F007FE80226021D20518
:10B4F000135900208B431351A023384ADB055F39D1
:10B500009950A1228021D2000903995006220421DA
:10B51000334B0090FFF7A6FD002803D07921314A74
:10B5200000F0BAF900F0BAF900F042F9002000F09A
:10B53000E7F8A8232C492D4ADB00CA502C4B2D4A92
:10B540008024CA50A0230122A2252B48DB051A50D3
:10B550002A48A4011C502A4E2A4CED006651C046D0
:10B56000C046C046284E22606651C046C046C0460E
:10B570000A60264920245A50A121C9005C50E324C6
:10B58000E4001A5140241C50214C1A5180241C50B4
:10B59000E524E4001A518024E4005C501D4C1A514B
:10B5A0008024A4031C501C481A5080208005585049
:10B5B000E720C0001A508022D2015A50EF22042006
:10B5C000D20098505C50FFF795FEC0460420002042
:10B5D0001C05000008260020A40000104C070000F5
:10B5E0006026002077CA03000090004048E8010070
:10B5F0004405000090D00300340700000C05000053
:10B60000031F020000600040030D03001407000048
:10B610001C07000054070000740700000848026877
:10B6200003210A4302600749074A084B9B1A03DDBE
:10B63000043BC858D050FBDC05488047054800470C
:10B6400024050040E8CA0300002000202425002033
:10B6500075B6030015A10300FEE7FEE7FEE7FEE76F
:10B66000FEE7FEE7014B024A1A60704714200020F3
:10B670000024F4001B4970B50B68DBB2012B03D129
:10B68000194803681B0700D070BD184AF0231468DE
:10B69000E02625001D40344221D1154C24681C426F
:10B6A0000DD1144B144C1C608024144B24021C60DC
:10B6B0000B68DBB2012BE7D103681B07E4D11368E9
:10B6C000F0221340402BDFD1094B1B681342DBD122
:10B6D0008022C1230121D205DB00D150D4E7302DD7
:10B6E000DBD0ECE7E00F00F0E40F00F0E80F00F033
:10B6F000EC0F00F004050040DFFF07C0186C0040AD
:10B70000A0220C21054BD20510B5D150C021D45830
:10B7100089022143D150024B187010BD440700002C
:10B720001029002010B500F061F8164C63689842AB
:10B7300011D000F05BF8A022A223217AD205DB0011
:10B74000D3586060002907D19B0304D401232372DE
:10B7500000F04CF8E06010BD9B03FCD50023237281
:10B7600000F044F8E368C01A96235B00984206D2C2
:10B7700000F03CF8E368C01A0123012800D8022336
:10B780002370E8E7102900200022024B18781A7075
:10B790007047C04610290020034A13680133136024
:10B7A0000022024B5A64704720290020FCA0004070
:10B7B000A221012204200B4BC900DA605850FA2064
:10B7C0003031800058508021802089005A50053146
:10B7D000FF314002585080200349C00008601A60C1
:10B7E0007047C04600A0004000E100E0014B18682F
:10B7F0007047C0462029002070DF704771DF704716
:10B8000073DF704778DF70477ADF70477CDF7047FF
:10B810007FDF704760DF704763DF7047FEE710B57A
:10B820000348FFF7EDFF002800D0FEE710BDC0463B
:10B830002429002010B5040000F0B2FC200000F024
:10B8400051FE10BD10B5040000F0F4F82000FEF722
:10B850003FFF20881038092809D801F041F8051663
:10B860000809080808080813A288094B1A8010BDA7
:10B87000084A074B002118881432FFF7C9FF002837
:10B88000F5D0FEE7A379002BF1D1FFF7C8FFEEE773
:10B890001820002024290020FEE7FEE70023F0B551
:10B8A00059495022180097B01C31FFF7F9F8061ECD
:10B8B00000D0FEE76B4601256A461B7A06AC2B4397
:10B8C000137202A8FFF7A6FF2000FFF797FF637827
:10B8D00021005B1930006370FFF78EFF4B48FFF7C4
:10B8E00007F9002800D0FEE74948FFF70BF90028C8
:10B8F00000D0FEE711226B4646491A7202A8013AAF
:10B90000FFF784FF002800D0FEE7FFF77BFF002849
:10B9100000D0FEE707AB188010232380DB1863807C
:10B920007133FF332000E380FFF76EFF061E00D067
:10B93000FEE76B46DF1D062304223B70364902A852
:10B9400001F012F838223100200001F016F802232D
:10B9500031002370200002ABA570A580A76025826E
:10B960006361FEF7DDFD011E00D0FEE714222648CC
:10B9700001F003F8C822244B52001A82264B813A68
:10B98000191DFF3A02A800F0EFFF390002A8FFF7E7
:10B9900043FF061E00D0FEE7387800F0ABF84022E7
:10B9A0003100200000F0E9FF1C492000FEF708FFED
:10B9B00011232000A387FEF753FF011E00D0FEE7EE
:10B9C0001822200000F0D9FFA0239B026360A3602F
:10B9D00003232373124B20002574A361FEF740FE5E
:10B9E000002800D0FEE71E22C021074B9A82DA8A87
:10B9F00011400C4A0A43DA8210221A76FFF70FFF31
:10BA000000F0D8FB17B0F0BD2429002045B8030092
:10BA100035B8030082CA03009CCA030093CA03001E
:10BA20001DB803000D070000A0DF7047A2DF7047BC
:10BA3000A6DF7047038870B50500112B07D0502B87
:10BA400009D0102B02D18288284B1A8070BD0122A8
:10BA5000264B5242F9E7264CC2882388861D9A421B
:10BA60000DD1237A002B0AD120002900328B0E3011
:10BA7000203100F079FF338B237301232372EA888E
:10BA8000238F9A42E2D16023B27E184950B213400C
:10BA900000280EDA8B701F23290020001A40013283
:10BAA000226421314430132A0ED9132200F05CFFA6
:10BAB000CCE78A789A42C9D1FF2320008B702900F5
:10BAC000226C5730133A213100F04EFF237A002BBD
:10BAD000BCD120002100256C0E302A00443100F03A
:10BAE00043FF012325732372B0E7C0461C200020CA
:10BAF00090290020FF23F0B587B002AA53703A4B7B
:10BB00009072019013810120023204A9FFF78CFF8B
:10BB1000041E66D103AE01000322300000F02DFFA9
:10BB200011230622022033707370B378019C934373
:10BB3000034305AF2D4DB370BC7002AC01342C63D0
:10BB40002C002B4B053A20342A85220002AC608859
:10BB50003B80291D274BAE612F62FFF767FF041E54
:10BB60003FD101000322300000F007FF012229002D
:10BB7000AC61019C204BBC7002AC01346C641D4C68
:10BB80003B803834230002AC6088AA8748311B4AC6
:10BB90006F63FFF74BFF041E23D101000322300027
:10BBA00000F0EBFE11230621022033707370B3788E
:10BBB00001228B430343B370019B2900BB70812397
:10BBC0009B003B8002AB01336B640A4BAA8702AA3D
:10BBD00050886433094A6431AE676F63FFF726FF0C
:10BBE0000400200007B0F0BD010200001C2000206E
:10BBF00002020000902900200302000050200020D3
:10BC0000014B187A7047C0469029002001480C303B
:10BC10007047C046902900200022014B1A727047DD
:10BC200090290020F0B58BB004AA971D3C4A0378F8
:10BC300016883C4A01903B8096426ED0142B01D965
:10BC400014233B800B2004AB05220021C01800F018
:10BC500094FE0123344D04AA93722B883000138183
:10BC6000019B06A99C1C09940897FFF7E1FE019B24
:10BC700014221B78132B01D85A1CD2B2E96E013B57
:10BC8000029148016021084041390B408021034363
:10BC900049420B43254903900B70254821003A8007
:10BCA00000F062FE0B2304A81B18052200211800D7
:10BCB00000F063FE012306AC6435A3702B882100DD
:10BCC00023801A4B300009930897FFF7B1FE019BC0
:10BCD0001A78132A1DD9154B0399123A1970019934
:10BCE00092B2153112483A8000F03EFE0B2304A8B0
:10BCF0001B1800211800052200F03FFE0123A3704D
:10BD00002B8821002380094B300009930897FFF707
:10BD10008FFE029B044A0133D3660BB0F0BDC046D0
:10BD20001C200020FFFF000090290020002A002096
:10BD3000012A002002000B4B000918400A4B120197
:10BD40001A401043094A83081340094A80001040F2
:10BD50000343084A58081040074A5B001340184341
:10BD60007047C0460F0F0F0FF0F0F0F0333333334E
:10BD7000CCCCCCCC55555555AAAAAAAA444AF0B564
:10BD80001169444B00290DD000211161424A1178FC
:10BD9000002967D0012905D18020C000185800284B
:10BDA00001D19960F0BDA921C90058582C215768CC
:10BDB0003A4C79436118486239483A4E1D58781C0C
:10BDC0008D62304004D504210138494208430130D6
:10BDD0009168884202D101229A60E3E72C214F4307
:10BDE000E4196178D76849070024890FB94204D162
:10BDF0001469641B67427C41E4B2D16015615169EA
:10BE0000294D002C0FD05951802108248900585801
:10BE1000A043585004205C58204358500021117012
:10BE200001221A61BEE714001C3450609069A142DF
:10BE30000BD0916C814208D00131314004D50424EB
:10BE400001396442214301319164946CA04206D0CF
:10BE50002C2161431548091859515161D4E711004B
:10BE60001C31F9E72C215068042441430B48091880
:10BE70000D481950802189005858A0435850082077
:10BE80005C58204358500121117019618AE7C0465F
:10BE9000FC10004000100040142A0020102B00204D
:10BEA0000C0400000300008004050000602A00204C
:10BEB000F8B50125022200272B4C2C4B2C4EE550C7
:10BEC0002C4B2D481A602D4BE750043BE7500833AC
:10BED000E55033791843FFF72DFF294B294AE050ED
:10BEE0000433E25073783078B2781B020343F07861
:10BEF0001204134300061843FFF71CFF224B234A8A
:10BF0000E0500433E250224B224AE7500433E5501C
:10BF1000214BE250214A0433E2500222204BE250EE
:10BF2000204B214AE250214A043BE250C12308221F
:10BF30009B00E250053BFF3BE550E15892180A4355
:10BF4000E2500422E1580A43E250E2582A43E25008
:10BF50002C22174B1D705B685343164A9B18164AD8
:10BF6000A3506560F8BDC04600100040FC0F000003
:10BF7000A220002000E100E000C2C3C40C050000C4
:10BF80002405000013E363A31C05000043434300A2
:10BF90002C05000006000300140500002000040129
:10BFA000340500003C050000FFFF000021100100E7
:10BFB000142A0020102B0020040500000222084B48
:10BFC0000821DA67C222074B920099500022F9310A
:10BFD000FF315A500121196103495A507047C04638
:10BFE00004E100E000100040FC0F0000034B586823
:10BFF0009B68C01A431E9841C0B27047142A0020A3
:10C0000010B5FFF7F3FF002805D0034B98682C23E9
:10C010005843024BC01810BD142A0020102B0020DA
:10C02000064A0749936801330B4004D50421013BBC
:10C0300049420B43013393607047C046142A0020E5
:10C0400003000080084B9A69501C084A104004D530
:10C05000042201385242104301309B6CC01A431E27
:10C060009841C0B27047C046142A002003000080E7
:10C0700010B5FFF7E7FF002805D0034B98692C2384
:10C080005843024BC01810BD142A0020602A00201B
:10C09000064A0749936901330B4004D50421013B4B
:10C0A00049420B43013393617047C046142A002074
:10C0B00003000080012809D002280CD0002804D1F8
:10C0C000A2230221064ADB00D1507047A22300219F
:10C0D000034ADB00F8E7A2230121014ADB00F3E772
:10C0E000001000407D2803D8A123024ADB00D05075
:10C0F0007047C0460010004010B5010005220248FC
:10C1000000F032FC10BDC046A22000204EDF704778
:10C1100050DF7047002310B51C4C2370042816D83C
:10C1200000F0DEFB031A17242A00C1228021184BDD
:10C13000920049029950A822C821D2009950802229
:10C14000144B52001A60FFF7B3FE00232370200047
:10C1500010BDFFF713FEF8E70F4A536C012BF6D121
:10C1600000215164FA2292006260EFE7FFF726FF98
:10C170000A4B63600323E9E7A822FA200449D200AE
:10C180008B5880001B188B50E1E7C046C02B002065
:10C190000080004000E100E0FC800040A82000207A
:10C1A000043810B5012802D80148FFF7B1FF10BDCF
:10C1B000A820002010B50348FFF7A8FF0248FFF7AA
:10C1C000A7FF10BD15C10300A820002021DF704784
:10C1D00020DF7047F7B5431C0193DB7F0400023B6F
:10C1E000DBB2FC2B47D80378FF2B09D0B74A137872
:10C1F000032B00D155E10020042B00D15CE1FEBDF2
:10C200004378FE2BF2D18578102D15D1002101271E
:10C21000FA3B03711C3BC37170334372C1704771A9
:10C220008171017281720C220B3000F0A6FB162383
:10C23000E575019AD37743E0142D22D18023DB00EA
:10C2400000219C46A24F0330E61D02E0725C0131E2
:10C25000FA54019BDB7F063B8B420CD94378027872
:10C260001B021343C27885789B0212025B182A4393
:10C270009B186345EADB019B0020DB7FFF2BBED0D0
:10C28000B4E7152D1ED180250022914EC11CED0072
:10C2900007344B780F78C8781B023B438F789B029A
:10C2A00000029B1838431B18AB4204DAF35CA3541A
:10C2B0000132192AEDD1019BDB7F9A18019BDA77B5
:10C2C00001209CE71C2D1CD1E8260021C51CB602CC
:10C2D00007346B782878EA781B020343A8789B021E
:10C2E00012025B1802439A18B24204DA13786354BC
:10C2F00001311929EDD1019BDB7F5918019BD977B9
:10C30000DEE7182D2FD1714F3B78002B00D06DE761
:10C31000857943792D021D432B00583BC11C8F2B7F
:10C320000BD84B7908791B0203435B19E82B04DC1B
:10C330004E78E37836021E4307D000230120019A8D
:10C34000E37004332071D37759E70622781C00F09C
:10C350000BFB01232800BD60FE603B70FFF738FF38
:10C360000028EAD187E7FF2D06D10622594903307C
:10C3700000F0FAFA08235CE7F02D20D1FFF736FA37
:10C380000500FFF733FA401B6328FAD98022019B8E
:10C39000D205D97F504B02290ED9E17800290BD163
:10C3A000D05840310143D150BFF34F8F4B4B4C4AD3
:10C3B000DA60BFF34F8FFEE72021D058F2E7162D49
:10C3C00000D013E7E725AD021921280000F050FA4C
:10C3D0002A780123CF2A5BD1AA69110A2A7F120683
:10C3E0000A43904254D16B68190A2B7A1B061943F1
:10C3F0000ED02A79E87812020243FC2092025518E6
:10C4000002238002854243D88020400182423FDBE4
:10C41000E7239B021A69187D120A000610430ED00A
:10C420001A7CDD7B12022A43FC259202101803239A
:10C43000AD02A8422CD880204001824228DB00298E
:10C4400016D1E725AD022B69297D1B0A0906194380
:10C4500025D0EB681802000C800200F009FA6B6925
:10C460001A0A2B7E1B061343984218D005230FE0AF
:10C47000E725AD022B681802000C800200F0F8F9E5
:10C48000AB682A7B1B0A12061A4304239042D8D0B9
:10C49000DBB223715A425341E3700423C9E60023FF
:10C4A000F6E718230120A37000230421E070237114
:10C4B000019C1370E177A2E61821A1701169E07068
:10C4C000217101991070CB77FAE6C046C82B002085
:10C4D000B8200020A40000101C05000000ED00E0C2
:10C4E0000400FA05F8B5040002284DD12E4B1A7845
:10C4F000012A02D0022A2FD0F8BD9A68D978501CA0
:10C500001A795F7912020A439979986009023943CE
:10C5100089185E1C884209DAFFF75AFE0028EBD022
:10C520000222214B1A6192181A70E5E77178587847
:10C5300009020143D9609A601C701C4B0903C91899
:10C54000900280225200FFF741FE0028D4D003223F
:10C55000154B1A610132E7E79A68DD78501CDA68FA
:10C560009C79511C1A79240212022A435D79986041
:10C570002C431219D960904204DA0C4B0903C918F4
:10C580008002DEE70322CFE70328B5D1064B1A78F5
:10C59000012A07D0022AAFD1DA6898681103034A4A
:10C5A0008918EDE79868B7E7C82B0020B82000206D
:10C5B00000200F4B70B519680E4C4A1C1500E06046
:10C5C0007F2A00DD0500A3205E680B4CC000AE4250
:10C5D00004D122589A6801329A6070BD24580748E5
:10C5E0001A6044547F2AF8DD00221A60F5E7C0463D
:10C5F000DC2B0020FC20004000200040F02B00201D
:10C60000A0221A49D2055358194830B50340535057
:10C61000A3248023A1211D25C900E4009B051351FB
:10C6200014485350144B1D5080251448ED051550E7
:10C630001E2513481D508020C001105150500E225D
:10C6400080205A500F490D3A5A500F494005585012
:10C65000A0200421C00019500C489A600160C1203C
:10C66000800019501A600A4B1A7330BD740700001D
:10C67000FFF8FFFF0C050000002000401C05000033
:10C68000140500006C0500002405000000E100E036
:10C69000DC2B0020064B1B7B002B08D0054B064AE9
:10C6A000D050064B1A6A002AFCD000221A6270474A
:10C6B000DC2B00201C05000000200040FC20004076
:10C6C000064B10B51B7B0400002B03D110BD0134B9
:10C6D000FFF7E0FF20780028F9D1F7E7DC2B0020F6
:10C6E000074B70B51B7B04004518002B04D170BDAF
:10C6F0002078FFF7CFFF0134AC42F9D1F7E7C0460D
:10C70000DC2B0020044B187B002804D009CBC01A76
:10C71000431E9841C0B27047DC2B0020084B1A7BA7
:10C72000101E0CD05A6819680020914207D00548A5
:10C73000511C805C59607F2901DD00225A607047DE
:10C74000DC2B0020F02B0020F8B50023324C050034
:10C7500022784370072A01D12370636007260627D9
:10C76000FFF7D0FF002802D02378072B05D12078CF
:10C77000073843425841C0B2F8BDFFF7CFFF03006E
:10C7800020780628ECD800F0ABF80409140F223505
:10C790003C00BC3B5A4253412370E1E70322CF2BBC
:10C7A00000D000222270DBE72B7023726372022319
:10C7B000F2E7227A617A9A18D2B222725218627221
:10C7C0000022E3606260934212D00423E4E76268CF
:10C7D0001F2A08DC207AA9188B701B18607ADBB23C
:10C7E00023721B186372E368013262609A42B7DBFE
:10C7F0000523D1E7227A9A4201D12770B0E70023BE
:10C80000CAE7627A9A4203D1E36826706B70A7E7A1
:10C81000002323706360A3E7702C0020F8B50600A6
:10C8200037001248FFF74CFF3078FFF733FF70787E
:10C830003478FFF72FFF75786519EDB26419E4B20B
:10C840007278BB1B9A4207DC2800FFF723FF200009
:10C85000FFF720FF0120F8BDB878FFF71BFFBB787A
:10C860000137ED18EDB26419E4B2E9E7B0CA03008C
:10C87000F7B50123019101250021184F00905B427B
:10C88000019A91420FDB002280241000012124062E
:10C890000B4202D02500D540284301325B08202AF4
:10C8A000F6D1C043FEBD009A0720545C00222C4202
:10C8B00002D02E008640324364080138F7D21206B7
:10C8C0005340082218005B00002800DA7B40013A40
:10C8D000D2B2002AF6D10131D2E7C046B71DC10459
:10C8E00002B4714649084900095C49008E4402BC03
:10C8F0007047C046084B10B50400002B02D0002141
:10C9000000E000BF054B1868836A002B00D09847F1
:10C91000200000F041F8C04600000000B4CA030047
:10C9200070B500260C4D0D4C641BA410A64209D115
:10C93000002600F033F80A4D0A4C641BA410A642EE
:10C9400005D170BDB300EB5898470136EEE7B30050
:10C95000EB5898470136F2E71C2500201C250020E3
:10C960001C25002020250020002310B59A4200D16C
:10C9700010BDCC5CC4540133F8E703008218934225
:10C9800000D1704719700133F9E70023C25C01330D
:10C99000002AFBD1581E7047FEE7C046F8B5C046D6
:10C9A000F8BC08BC9E467047F8B5C046F8BC08BC49
:10C9B0009E4670473A3D0A3D0F3D243D323D023DC3
:10C9C000053D133D0D3D0C3D233D113D263D013DF3
:10C9D000173D083D093D00006E726635315F736496
:10C9E0006B2F6E726635313832322F536F7572632A
:10C9F000652F626C652F626C655F73657276696323
:10CA000065732F626C655F6469732E63006E726676
:10CA100035315F73646B2F6E726635313832322F69
:10CA2000536F757263652F73645F636F6D6D6F6EA7
:10CA30002F736F66746465766963655F68616E64A1
:10CA40006C65722E63006E726635315F73646B2F96
:10CA50006E726635313832322F536F757263652FBF
:10CA60006170705F636F6D6D6F6E2F6170705F745A
:10CA7000696D65722E63007372632F6D61696E2E2E
:10CA800063004372617A79666C6965204C6F6164FA
:10CA90006572004269746372617A65000A18010068
:10CAA000089A0AC0B7437B949E4F7F1C0000000089
:10CAB000BCCF0000BC2400203A3D0A3D0F3D243D80
:10CAC000323D023D053D133D0D3D0C3D233D113DE5
:10CAD000263D013D173D083D093D000000000000D6
:08CAE00028D6FF7F01000000D1
:10CAE800000000000200000000000000000000003C
:10CAF800000000000024F400FFFF0000FFFFFF001B
:10CB08001A00000000000000000000000000000003
:10CB1800000000000000000000000000000000000D
:10CB28009F200020010000002000000000000000FD
:10CB3800000000009C2000200100000020000000F0
:10CB4800000000000C0000000000000000000000D1
:10CB580000000000000000000000000000000000CD
:10CB680012000000000000000000000000000000AB
:10CB78000000000000000000000000001111031177
:10CB88001103E7E7E7E7E700000000000001000005
:10CB9800E803000040420F004200000000000000CF
:10CBA800000000000000000000000000000000007D
:10CBB800000000000000000000000000000000006D
:10CBC800000000000000000000000000000000005D
:10CBD800000000000000000000000000000000004D
:10CF98000000000000000000BC2400200000000089
:10CFA8000000000000000000000000000000000079
:10CFB8000000000000000000000000000000000069
:10CFC8000000000000000000000000000000000059
:10CFD8000000000000000000000000000000000049
:10CFE8000000000000000000000000000000000039
:10CFF800000000000000000000000000E9A003009D
:04D00800C1A00300C0
:040000033000B61DF6
:00000001FF
