:020000023000CC
:10F0000000400020E1F703001DF803001FF8030093
:10F0100000000000000000000000000000000000F0
:10F0200000000000000000000000000021F80300C4
:10F03000000000000000000023F8030025F8030092
:10F0400018DF7047A8230E4A0E49DB0070B5D15077
:10F05000A0210023A02480250026490053500A48FF
:10F060000133D360E4051360AD015358002BFCD08D
:10F07000565023586B4023505358002BF5D0F7E7D8
:10F08000009000406A1800000405000001220849B1
:10F09000084B10B51B684A6007494A605A1C04D0E7
:10F0A0001A6882F308885B689847FFF7CBFFC04671
:10F0B000008000408010001000900040F0B5DE4657
:10F0C00057464E464546E0B500296BDD01238A468A
:10F0D00001259C463F339846022704260824824493
:10F0E0006D423BE040239B460023174200D05B4625
:10F0F000164201D020210B43144201D010210B43B2
:10F100001021114200D023432021114200D033436B
:10F110004146114200D03B43D20901D0624613431D
:10F120001B066B403AD45B00002B33DB5B00002BEB
:10F130002CDB5B00002B25DB5B00002B1EDB5B0068
:10F14000002B17DB5B00002B10DB5B005D00002B4E
:10F1500001DA204B5D400130824525D063460278BC
:10F160001342BFD0C0239B46403BBEE75D00194B16
:10F170006B40EBE75D00174B6B40E4E75D00154B20
:10F180006B40DDE75D00134B6B40D6E75D00114B34
:10F190006B40CFE75D000F4B6B40C8E75D000D4B48
:10F1A0006B40C1E701256D4280240023002001222D
:10F1B00024062A4202D02100D940084301336D08B9
:10F1C000202BF6D1C043F0BCBB46B246A946A046B0
:10F1D000F0BDC046B71DC1041C4B1B78012B00D0ED
:10F1E00070471B4B1B681B07FAD11A4AF0231268A1
:10F1F000110019401A4201D0102924D1164A126870
:10F200001A4210D0F022134B1B681340402BE7D159
:10F21000114B1B681342E3D18022C1230121D20587
:10F22000DB00D150DCE70D4B0D4A1A6080220D4BFC
:10F2300012021A60054B1B78012BD1D1044B1B68BD
:10F240001B07DFD0CCE73029D8D0DBE7E00F00F098
:10F25000E40F00F0E80F00F0EC0F00F004050040B0
:10F26000DFFF07C0186C0040F8B50323DE465746A1
:10F270004E464546A04AE0B513708022C0230121C6
:10F280008020D205DB00D1509C4B0006D050A0233B
:10F290009B48DB0519508024A120A401C0001C500C
:10F2A000E5208024C00019509648E4001C500C242E
:10F2B00095481C501160FF315358002BFCD0A22000
:10F2C000A12407250222914BC000E4001D501A51D1
:10F2D000A8228F49D2009950A022002152009950B3
:10F2E0008C4F8D4A9F50A22252009950443AFF3AC7
:10F2F000DA601A60894B1D501951802189005A50DB
:10F300008021874B49051B688B4200D9BDE19B0AD0
:10F3100098464146834B1960A0231100DB051B581A
:10F320005B0C19401A4200D1E3E07F49A0228C46D1
:10F33000802189018946794B5200A024A22780258B
:10F340007248E405FF00AD02E1590E002E40B246BE
:10F35000294240D19958002907D051469950614619
:10F360004E46615871406646A1518158002927D008
:10F37000A826F600B2466D4E0021B346815056468F
:10F380005946995100215C4E99500131D96019605C
:10F3900031704431FF3141580029D5D0A2240021D9
:10F3A0005A4864000151A824614DE4001D51995050
:10F3B0000131D960196041604F4801310170BCE7EB
:10F3C000A221490041580029E8D1E1590E002E4000
:10F3D000B2462942BED080210623564AC905885824
:10F3E00098438850444800788D584000034080205E
:10F3F0002B4303438B50404B1B78022B00D19DE0E5
:10F400004446013CA4022378CF2B70D1192120005F
:10F41000FFF754FEA3691A0A237F1B061343984281
:10F4200065D16368257A1B0A2D061D4300D12EE1A4
:10F430002379E2781B021343FC229B0259199202A2
:10F44000914254D880225201934250DB2369277D98
:10F4500099463A061B0A1A43904600D020E12368D9
:10F4600029001F023F0CBF023800FFF727FEA368E8
:10F470001A0A237B1B061343834238D16B1E1E4A94
:10F480009B080133136197602379E2781B021343D1
:10F49000194A9B02101DD360FFF7D2FD0E2800D140
:10F4A00025E12369277D1B0A3F063B4316D0013324
:10F4B000114A9B0801331361E3681B021B0C9B027A
:10F4C0009360237CE27B1B0213430B4A9B02101DBB
:10F4D000D360FFF7B5FD0E2800D108E10221164BDD
:10F4E000114A9950A121C9005C5000219950FFF7A1
:10F4F000CDFD014B197018E7002000200406000024
:10F50000340700000C0500004407000000800040A4
:10F510006CDC02006889090044050000009000408E
:10F5200080100010282000200405000048E8010099
:10F53000127A00001C05000000E0014001239D4AF2
:10F540002021A350A122D200A150E3214020C900D4
:10F550006350994960500D39FF39A150EB21C90022
:10F5600063508021C903A150A821944A9448C9003E
:10F570005050A021002049005050D36013605358D0
:10F58000002BFCD0A0218D4A49005358002BFCD001
:10F59000A8238C48DB00D0500023535098460133F9
:10F5A000D36013608022A021A023A226802592018F
:10F5B00094468248844C4900DB05F600AD0242586F
:10F5C000002A46D04246674642501A597A401A519C
:10F5D0009A592A42F3D1A02280237749D205DB032E
:10F5E0005350012379481350802080035050734AB0
:10F5F000734834315050A021002049005050D3604E
:10F6000013605358002BFCD0A0216C4A490053587A
:10F61000002BFCD0A0200C246C4BC005C450A823A8
:10F620006B4CDB00D4500025012355508026D3605D
:10F630001360A0226149644C5200B6018B58002B24
:10F64000FCD08D500359734003518B58002BF5D0DB
:10F65000F7E79A592A42B2D1BDE7013B9B0A5D4ABE
:10F6600001331B02136223681B021B0C9B02936174
:10F670002379E2781B021343564A9B021000143090
:10F68000D361FFF7DDFC002837D0FFF7DBFC2369EF
:10F69000277D99463A061B0A1A43904600D11DE77A
:10F6A000237CE27B1B02134342469B029918FC22F7
:10F6B0009202914200D91AE780225201934200DA65
:10F6C00015E7002D55D1E36841461802000C800271
:10F6D000FFF7F4FC63691A0A237E1B061343834277
:10F6E00000D004E74B463F061B0A3B43DFE6636856
:10F6F0001A0A237A1B061343AFD123691A0A237D02
:10F700001B06134317D0013B9B0A324A01331B02ED
:10F710001362E3681B021B0C9B029361237CE27B58
:10F720001B0213432B4A9B0210001430D361FFF7D6
:10F7300087FC0028A9D10221274B234A9950A121F7
:10F74000C9005C5000219950012380210624214AE0
:10F75000C9051370214A1F4B8858A04388501B7855
:10F7600088585B0023400343802003438B50FFF7FE
:10F770008DFC236829001F023F0CBF023800FFF7F1
:10F780009DFCA3681A0A237B1B061343834200D007
:10F79000ADE6E36841461802000C8002FFF78EFCDC
:10F7A00063691A0A237E1B061343984200D165E65B
:10F7B0009DE6C046140700000C05000000900040C4
:10F7C0006A180000127A00000405000054070000C7
:10F7D0003E4900000020002000E001401C05000020
:10F7E0000848026803210A4302600749074A084B98
:10F7F0009B1A03DD043BC858D050FBDC054880470A
:10F80000054800472405004038F803000020002088
:10F8100028200020D9F1030069F20300FEE7FEE78B
:10F82000FEE7FEE7FEE7FEE7F8B5C046F8B5C046DE
:08F83000B0FFFF7F01000000A2
:10F8380003000000030000000000000000000000BA
:10F8480000000000010000000000000000000000AF
:08F85800000000000024F40090
:10FFE000303B434632313B523D423100000000007D
:10FFF0000000000000000000000000000000000001
:040000033000F7E1F1
:00000001FF
